{
  "_format": "hh-sol-artifact-1",
  "contractName": "PokerGameTon",
  "sourceName": "contracts/PokerGameTon.sol",
  "abi": [
    {
      "inputs": [],
      "stateMutability": "nonpayable",
      "type": "constructor"
    },
    {
      "anonymous": false,
      "inputs": [
        {
          "indexed": false,
          "internalType": "string[]",
          "name": "playerHand",
          "type": "string[]"
        },
        {
          "indexed": false,
          "internalType": "string[]",
          "name": "dealerHand",
          "type": "string[]"
        }
      ],
      "name": "AllHands",
      "type": "event"
    },
    {
      "anonymous": false,
      "inputs": [
        {
          "indexed": false,
          "internalType": "string[]",
          "name": "hand",
          "type": "string[]"
        }
      ],
      "name": "CardHand",
      "type": "event"
    },
    {
      "anonymous": false,
      "inputs": [
        {
          "indexed": false,
          "internalType": "address",
          "name": "sender",
          "type": "address"
        },
        {
          "indexed": false,
          "internalType": "address",
          "name": "receipient",
          "type": "address"
        },
        {
          "indexed": false,
          "internalType": "uint256",
          "name": "amount",
          "type": "uint256"
        }
      ],
      "name": "Claimed",
      "type": "event"
    },
    {
      "inputs": [],
      "name": "betAmount",
      "outputs": [
        {
          "internalType": "uint256",
          "name": "",
          "type": "uint256"
        }
      ],
      "stateMutability": "view",
      "type": "function"
    },
    {
      "inputs": [],
      "name": "betToken",
      "outputs": [
        {
          "internalType": "contract IERC20",
          "name": "",
          "type": "address"
        }
      ],
      "stateMutability": "view",
      "type": "function"
    },
    {
      "inputs": [],
      "name": "generateDealerHand",
      "outputs": [],
      "stateMutability": "nonpayable",
      "type": "function"
    },
    {
      "inputs": [],
      "name": "generatePlayerHand",
      "outputs": [],
      "stateMutability": "nonpayable",
      "type": "function"
    },
    {
      "inputs": [],
      "name": "getHand",
      "outputs": [],
      "stateMutability": "nonpayable",
      "type": "function"
    },
    {
      "inputs": [
        {
          "internalType": "address",
          "name": "",
          "type": "address"
        }
      ],
      "name": "ipfsHashOfPlayerCurrentHand",
      "outputs": [
        {
          "internalType": "string",
          "name": "",
          "type": "string"
        }
      ],
      "stateMutability": "view",
      "type": "function"
    },
    {
      "inputs": [
        {
          "internalType": "address",
          "name": "",
          "type": "address"
        }
      ],
      "name": "ipfsHashOfPlayerDetails",
      "outputs": [
        {
          "internalType": "string",
          "name": "",
          "type": "string"
        }
      ],
      "stateMutability": "view",
      "type": "function"
    },
    {
      "inputs": [
        {
          "internalType": "address",
          "name": "",
          "type": "address"
        }
      ],
      "name": "playerCurrentAmount",
      "outputs": [
        {
          "internalType": "uint256",
          "name": "",
          "type": "uint256"
        }
      ],
      "stateMutability": "view",
      "type": "function"
    }
  ],
  "bytecode": "0x608060405262000027600a670de0b6b3a76400006200022660201b620005c31790919060201c565b600055604080516101e08101825260016101a08201818152604160f81b6101c0840152825282518084018452818152601960f91b6020828101919091528084019190915283518085018552828152603360f81b818301528385015283518085018552828152600d60fa1b81830152606084015283518085018552828152603560f81b81830152608084015283518085018552828152601b60f91b8183015260a084015283518085018552828152603760f81b8183015260c084015283518085018552828152600760fb1b8183015260e084015283518085018552828152603960f81b8183015261010084015283518085018552600280825261031360f41b8284015261012085019190915284518086018652838152602560f91b8184015261014085015284518086018652838152605160f81b818401526101608501528451808601909552918452604b60f81b908401526101808201929092526200018f9190600d6200023b565b506040805160c081018252600160808201818152600960fb1b60a0840152825282518084018452818152604360f81b6020828101919091528084019190915283518085018552828152605360f81b81830152838501528351808501909452908352601160fa1b9083015260608101919091526200021190600f90600462000292565b503480156200021f57600080fd5b506200043d565b6000620002348284620003df565b9392505050565b82600d810192821562000280579160200282015b828111156200028057825180516200026f918491602090910190620002d7565b50916020019190600101906200024f565b506200028e92915062000362565b5090565b826004810192821562000280579160200282015b82811115620002805782518051620002c6918491602090910190620002d7565b5091602001919060010190620002a6565b828054620002e59062000400565b90600052602060002090601f01602090048101928262000309576000855562000354565b82601f106200032457805160ff191683800117855562000354565b8280016001018555821562000354579182015b828111156200035457825182559160200191906001019062000337565b506200028e92915062000383565b808211156200028e5760006200037982826200039a565b5060010162000362565b5b808211156200028e576000815560010162000384565b508054620003a89062000400565b6000825580601f10620003bc5750620003dc565b601f016020900490600052602060002090810190620003dc919062000383565b50565b600082620003fb57634e487b7160e01b81526012600452602481fd5b500490565b6002810460018216806200041557607f821691505b602082108114156200043757634e487b7160e01b600052602260045260246000fd5b50919050565b610af8806200044d6000396000f3fe608060405234801561001057600080fd5b50600436106100885760003560e01c80635fe3e36b1161005b5780635fe3e36b146100f357806378691f16146100fb5780638cd775e314610110578063d24257c01461011857610088565b80630b2424321461008d5780631e75d4b3146100975780631f15500b146100c05780634f5b8d21146100d3575b600080fd5b610095610120565b005b6100aa6100a53660046107f5565b61032a565b6040516100b791906109c6565b60405180910390f35b6100aa6100ce3660046107f5565b6103c4565b6100e66100e13660046107f5565b6103dd565b6040516100b79190610a19565b6100956103ef565b610103610442565b6040516100b791906109b2565b610095610451565b6100e66105bd565b3360009081526016602052604090206013805461013e9183916105d6565b50600560005b8181101561026e576000600d4442846040516020016101659392919061095b565b6040516020818303038152906040528051906020012060001c6101889190610a98565b9050600060044442856040516020016101a39392919061095b565b6040516020818303038152906040528051906020012060001c6101c69190610a98565b90506000600283600d81106101eb57634e487b7160e01b600052603260045260246000fd5b01600f836004811061020d57634e487b7160e01b600052603260045260246000fd5b0160405160200161021f92919061093e565b60408051601f19818403018152919052865460018101885560008881526020908190208351939450610257939201919084019061063c565b50505050808061026690610a71565b915050610144565b50336000908152601660205260409020825461028c919084906105d6565b506040805180820190915260006020820190815281526102b09060139060016106bc565b5060138054806102d057634e487b7160e01b600052603160045260246000fd5b6001900381819060005260206000200160006102ec9190610709565b90556040517fc9906b05e35a168c9175a9b20bb52a72f508d1d07140640a278108633f2cd7449061031e908490610971565b60405180910390a15050565b6017602052600090815260409020805461034390610a36565b80601f016020809104026020016040519081016040528092919081815260200182805461036f90610a36565b80156103bc5780601f10610391576101008083540402835291602001916103bc565b820191906000526020600020905b81548152906001019060200180831161039f57829003601f168201915b505050505081565b6018602052600090815260409020805461034390610a36565b60146020526000908152604090205481565b33600090815260156020908152604080832060169092529182902091517fcadca8946e9ffa28480ba43a971337dfcfc93c5417964edf8b9c1a5dbb3311b0926104389291610984565b60405180910390a1565b6001546001600160a01b031681565b3360009081526015602052604090206013805461046f9183916105d6565b50600560005b8181101561059f576000600d4442846040516020016104969392919061095b565b6040516020818303038152906040528051906020012060001c6104b99190610a98565b9050600060044442856040516020016104d49392919061095b565b6040516020818303038152906040528051906020012060001c6104f79190610a98565b90506000600283600d811061051c57634e487b7160e01b600052603260045260246000fd5b01600f836004811061053e57634e487b7160e01b600052603260045260246000fd5b0160405160200161055092919061093e565b60408051601f19818403018152919052865460018101885560008881526020908190208351939450610588939201919084019061063c565b50505050808061059790610a71565b915050610475565b50336000908152601560205260409020825461028c919084906105d6565b60005481565b60006105cf8284610a22565b9392505050565b82805482825590600052602060002090810192821561062c5760005260206000209182015b8281111561062c57828290805461061190610a36565b61061c929190610748565b50916001019190600101906105fb565b506106389291506107c3565b5090565b82805461064890610a36565b90600052602060002090601f01602090048101928261066a57600085556106b0565b82601f1061068357805160ff19168380011785556106b0565b828001600101855582156106b0579182015b828111156106b0578251825591602001919060010190610695565b506106389291506107e0565b82805482825590600052602060002090810192821561062c579160200282015b8281111561062c57825180516106f991849160209091019061063c565b50916020019190600101906106dc565b50805461071590610a36565b6000825580601f106107275750610745565b601f01602090049060005260206000209081019061074591906107e0565b50565b82805461075490610a36565b90600052602060002090601f01602090048101928261077657600085556106b0565b82601f1061078757805485556106b0565b828001600101855582156106b057600052602060002091601f016020900482015b828111156106b05782548255916001019190600101906107a8565b808211156106385760006107d78282610709565b506001016107c3565b5b8082111561063857600081556001016107e1565b600060208284031215610806578081fd5b81356001600160a01b03811681146105cf578182fd5b6000815480845260208085019450848183028601858552828520855b858110156108c257838303895286825461085181610a36565b8086526001828116801561086c5760018114610880576108ab565b60ff198416888b01526040880194506108ab565b868c52898c208c5b848110156108a35781548a82018d0152908301908b01610888565b89018b019550505b509b88019b92955050509190910190600101610838565b5090979650505050505050565b600081546108dc81610a36565b600182811680156108f4576001811461090557610934565b60ff19841687528287019450610934565b8560005260208060002060005b8581101561092b5781548a820152908401908201610912565b50505082870194505b5050505092915050565b600061095361094d83866108cf565b846108cf565b949350505050565b9283526020830191909152604082015260600190565b6000602082526105cf602083018461081c565b600060408252610997604083018561081c565b82810360208401526109a9818561081c565b95945050505050565b6001600160a01b0391909116815260200190565b6000602080835283518082850152825b818110156109f2578581018301518582016040015282016109d6565b81811115610a035783604083870101525b50601f01601f1916929092016040019392505050565b90815260200190565b600082610a3157610a31610aac565b500490565b600281046001821680610a4a57607f821691505b60208210811415610a6b57634e487b7160e01b600052602260045260246000fd5b50919050565b6000600019821415610a9157634e487b7160e01b81526011600452602481fd5b5060010190565b600082610aa757610aa7610aac565b500690565b634e487b7160e01b600052601260045260246000fdfea2646970667358221220a670c8243d3a62415b023e57f08deb489969a82b2f9796ec7f79a36ba29b5c5064736f6c63430008000033",
  "linkReferences": {},
  "deployedLinkReferences": {}
}