{
  "_format": "hh-sol-artifact-1",
  "contractName": "PokerGame",
  "sourceName": "contracts/PokerGame.sol",
  "abi": [
    {
      "inputs": [],
      "stateMutability": "nonpayable",
      "type": "constructor"
    },
    {
      "anonymous": false,
      "inputs": [
        {
          "indexed": false,
          "internalType": "string",
          "name": "playerHand",
          "type": "string"
        },
        {
          "indexed": false,
          "internalType": "string",
          "name": "dealerHand",
          "type": "string"
        }
      ],
      "name": "AllHands",
      "type": "event"
    },
    {
      "anonymous": false,
      "inputs": [
        {
          "indexed": false,
          "internalType": "string",
          "name": "hand",
          "type": "string"
        }
      ],
      "name": "CardHand",
      "type": "event"
    },
    {
      "anonymous": false,
      "inputs": [
        {
          "indexed": false,
          "internalType": "address",
          "name": "sender",
          "type": "address"
        },
        {
          "indexed": false,
          "internalType": "address",
          "name": "receipient",
          "type": "address"
        },
        {
          "indexed": false,
          "internalType": "uint256",
          "name": "amount",
          "type": "uint256"
        }
      ],
      "name": "Claimed",
      "type": "event"
    },
    {
      "inputs": [],
      "name": "betAmount",
      "outputs": [
        {
          "internalType": "uint256",
          "name": "",
          "type": "uint256"
        }
      ],
      "stateMutability": "view",
      "type": "function"
    },
    {
      "inputs": [],
      "name": "betToken",
      "outputs": [
        {
          "internalType": "contract IERC20",
          "name": "",
          "type": "address"
        }
      ],
      "stateMutability": "view",
      "type": "function"
    },
    {
      "inputs": [
        {
          "internalType": "address",
          "name": "",
          "type": "address"
        }
      ],
      "name": "bidAmount",
      "outputs": [
        {
          "internalType": "uint256",
          "name": "",
          "type": "uint256"
        }
      ],
      "stateMutability": "view",
      "type": "function"
    },
    {
      "inputs": [
        {
          "internalType": "address",
          "name": "",
          "type": "address"
        }
      ],
      "name": "dealerCurrentAmount",
      "outputs": [
        {
          "internalType": "uint256",
          "name": "",
          "type": "uint256"
        }
      ],
      "stateMutability": "view",
      "type": "function"
    },
    {
      "inputs": [],
      "name": "getApprovedAmount",
      "outputs": [
        {
          "internalType": "uint256",
          "name": "",
          "type": "uint256"
        },
        {
          "internalType": "uint256",
          "name": "",
          "type": "uint256"
        }
      ],
      "stateMutability": "view",
      "type": "function"
    },
    {
      "inputs": [],
      "name": "getGameDetails",
      "outputs": [
        {
          "internalType": "uint256",
          "name": "",
          "type": "uint256"
        },
        {
          "internalType": "uint256",
          "name": "",
          "type": "uint256"
        },
        {
          "internalType": "string",
          "name": "",
          "type": "string"
        },
        {
          "internalType": "string",
          "name": "",
          "type": "string"
        },
        {
          "internalType": "string",
          "name": "",
          "type": "string"
        }
      ],
      "stateMutability": "view",
      "type": "function"
    },
    {
      "inputs": [],
      "name": "getHand",
      "outputs": [],
      "stateMutability": "nonpayable",
      "type": "function"
    },
    {
      "inputs": [
        {
          "internalType": "address",
          "name": "",
          "type": "address"
        }
      ],
      "name": "ipfsHashOfPlayerDetails",
      "outputs": [
        {
          "internalType": "string",
          "name": "",
          "type": "string"
        }
      ],
      "stateMutability": "view",
      "type": "function"
    },
    {
      "inputs": [
        {
          "internalType": "uint256",
          "name": "_amount",
          "type": "uint256"
        }
      ],
      "name": "placeBet",
      "outputs": [],
      "stateMutability": "nonpayable",
      "type": "function"
    },
    {
      "inputs": [
        {
          "internalType": "address",
          "name": "",
          "type": "address"
        }
      ],
      "name": "playerCurrentAmount",
      "outputs": [
        {
          "internalType": "uint256",
          "name": "",
          "type": "uint256"
        }
      ],
      "stateMutability": "view",
      "type": "function"
    },
    {
      "inputs": [
        {
          "internalType": "string",
          "name": "_winner",
          "type": "string"
        }
      ],
      "name": "rewardWinner",
      "outputs": [],
      "stateMutability": "nonpayable",
      "type": "function"
    },
    {
      "inputs": [
        {
          "internalType": "uint256",
          "name": "_amount",
          "type": "uint256"
        }
      ],
      "name": "setAmount",
      "outputs": [],
      "stateMutability": "payable",
      "type": "function"
    },
    {
      "inputs": [
        {
          "internalType": "string",
          "name": "_playerHand",
          "type": "string"
        },
        {
          "internalType": "string",
          "name": "_dealerHand",
          "type": "string"
        }
      ],
      "name": "setHand",
      "outputs": [],
      "stateMutability": "nonpayable",
      "type": "function"
    },
    {
      "inputs": [
        {
          "internalType": "string",
          "name": "_historyHash",
          "type": "string"
        }
      ],
      "name": "updatePlayerDetails",
      "outputs": [],
      "stateMutability": "nonpayable",
      "type": "function"
    }
  ],
  "bytecode": "0x608060405262000027600a670de0b6b3a76400006200022660201b620009831790919060201c565b600055604080516101e08101825260016101a08201818152604160f81b6101c0840152825282518084018452818152601960f91b6020828101919091528084019190915283518085018552828152603360f81b818301528385015283518085018552828152600d60fa1b81830152606084015283518085018552828152603560f81b81830152608084015283518085018552828152601b60f91b8183015260a084015283518085018552828152603760f81b8183015260c084015283518085018552828152600760fb1b8183015260e084015283518085018552828152603960f81b8183015261010084015283518085018552600280825261031360f41b8284015261012085019190915284518086018652838152602560f91b8184015261014085015284518086018652838152605160f81b818401526101608501528451808601909552918452604b60f81b908401526101808201929092526200018f9190600d6200023b565b506040805160c081018252600160808201818152600960fb1b60a0840152825282518084018452818152604360f81b6020828101919091528084019190915283518085018552828152605360f81b81830152838501528351808501909452908352601160fa1b9083015260608101919091526200021190600f90600462000292565b503480156200021f57600080fd5b506200043d565b6000620002348284620003df565b9392505050565b82600d810192821562000280579160200282015b828111156200028057825180516200026f918491602090910190620002d7565b50916020019190600101906200024f565b506200028e92915062000362565b5090565b826004810192821562000280579160200282015b82811115620002805782518051620002c6918491602090910190620002d7565b5091602001919060010190620002a6565b828054620002e59062000400565b90600052602060002090601f01602090048101928262000309576000855562000354565b82601f106200032457805160ff191683800117855562000354565b8280016001018555821562000354579182015b828111156200035457825182559160200191906001019062000337565b506200028e92915062000383565b808211156200028e5760006200037982826200039a565b5060010162000362565b5b808211156200028e576000815560010162000384565b508054620003a89062000400565b6000825580601f10620003bc5750620003dc565b601f016020900490600052602060002090810190620003dc919062000383565b50565b600082620003fb57634e487b7160e01b81526012600452602481fd5b500490565b6002810460018216806200041557607f821691505b602082108114156200043757634e487b7160e01b600052602260045260246000fd5b50919050565b610f4e806200044d6000396000f3fe6080604052600436106100dd5760003560e01c80635fe3e36b1161007f5780639d750e32116100595780639d750e3214610237578063a3df05d51461025a578063b7cdbd871461027a578063d24257c01461029a576100dd565b80635fe3e36b146101e05780636b568067146101f557806378691f1614610215576100dd565b806330b92ffe116100bb57806330b92ffe1461014d5780634881b6031461016d5780634f5b8d211461019a57806350fc2c61146101ba576100dd565b806310fe7c48146100e25780631e75d4b314610104578063271f88b41461013a575b600080fd5b3480156100ee57600080fd5b506101026100fd366004610b97565b6102af565b005b34801561011057600080fd5b5061012461011f366004610ad4565b610336565b6040516101319190610cdf565b60405180910390f35b610102610148366004610b97565b6103d0565b34801561015957600080fd5b50610102610168366004610b36565b610423565b34801561017957600080fd5b5061018d610188366004610ad4565b610469565b6040516101319190610d9f565b3480156101a657600080fd5b5061018d6101b5366004610ad4565b61047b565b3480156101c657600080fd5b506101cf61048d565b604051610131959493929190610db6565b3480156101ec57600080fd5b50610102610684565b34801561020157600080fd5b50610102610210366004610afb565b6106d7565b34801561022157600080fd5b5061022a610918565b6040516101319190610ccb565b34801561024357600080fd5b5061024c610927565b604051610131929190610da8565b34801561026657600080fd5b50610102610275366004610afb565b610947565b34801561028657600080fd5b5061018d610295366004610ad4565b61096b565b3480156102a657600080fd5b5061018d61097d565b600081116102d85760405162461bcd60e51b81526004016102cf90610d6f565b60405180910390fd5b336000908152601560205260409020546102f29082610996565b336000908152601560209081526040808320939093556016905220546103189082610996565b33600090815260166020908152604080832093909355601490522055565b6019602052600090815260409020805461034f90610eb1565b80601f016020809104026020016040519081016040528092919081815260200182805461037b90610eb1565b80156103c85780601f1061039d576101008083540402835291602001916103c8565b820191906000526020600020905b8154815290600101906020018083116103ab57829003601f168201915b505050505081565b336000908152601560205260409020546103ea90826109a2565b3360009081526015602090815260408083209390935560169052205461041090826109a2565b3360009081526016602052604090205550565b3360009081526017602090815260409091208351610443928501906109ba565b503360009081526018602090815260409091208251610464928401906109ba565b505050565b60146020526000908152604090205481565b60156020526000908152604090205481565b3360009081526015602090815260408083205460168352818420546017845282852060188552838620601990955292852083548695606095869586959094909391929183906104db90610eb1565b80601f016020809104026020016040519081016040528092919081815260200182805461050790610eb1565b80156105545780601f1061052957610100808354040283529160200191610554565b820191906000526020600020905b81548152906001019060200180831161053757829003601f168201915b5050505050925081805461056790610eb1565b80601f016020809104026020016040519081016040528092919081815260200182805461059390610eb1565b80156105e05780601f106105b5576101008083540402835291602001916105e0565b820191906000526020600020905b8154815290600101906020018083116105c357829003601f168201915b505050505091508080546105f390610eb1565b80601f016020809104026020016040519081016040528092919081815260200182805461061f90610eb1565b801561066c5780601f106106415761010080835404028352916020019161066c565b820191906000526020600020905b81548152906001019060200180831161064f57829003601f168201915b50505050509050945094509450945094509091929394565b33600090815260176020908152604080832060189092529182902091517f2fcb5c7ec8a9e376b5895a4684da7c7337d3e98528b3c1f6320fc4fb26be9daf926106cd9291610cf2565b60405180910390a1565b336000908152601460205260409020546107035760405162461bcd60e51b81526004016102cf90610d20565b60405160200161071290610c98565b60405160208183030381529060405280519060200120816040516020016107399190610c7c565b60405160208183030381529060405280519060200120141561079b573360009081526014602052604090205461078a906107749060026109ae565b33600090815260156020526040902054906109a2565b336000908152601560205260409020555b6040516020016107aa90610cb9565b60405160208183030381529060405280519060200120816040516020016107d19190610c7c565b60405160208183030381529060405280519060200120141561083357336000908152601460205260409020546108229061080c9060026109ae565b33600090815260166020526040902054906109a2565b336000908152601660205260409020555b60405160200161084290610caa565b60405160208183030381529060405280519060200120816040516020016108699190610c7c565b6040516020818303038152906040528051906020012014156108eb57336000908152601460209081526040808320546016909252909120546108aa916109a2565b3360009081526016602090815260408083209390935560148152828220546015909152919020546108da916109a2565b336000908152601560205260409020555b336000908152601460205260409020546109059080610996565b3360009081526014602052604090205550565b6001546001600160a01b031681565b336000908152601560209081526040808320546016909252909120549091565b3360009081526019602090815260409091208251610967928401906109ba565b5050565b60166020526000908152604090205481565b60005481565b600061098f8284610e2b565b9392505050565b600061098f8284610e6a565b600061098f8284610e13565b600061098f8284610e4b565b8280546109c690610eb1565b90600052602060002090601f0160209004810192826109e85760008555610a2e565b82601f10610a0157805160ff1916838001178555610a2e565b82800160010185558215610a2e579182015b82811115610a2e578251825591602001919060010190610a13565b50610a3a929150610a3e565b5090565b5b80821115610a3a5760008155600101610a3f565b600082601f830112610a63578081fd5b813567ffffffffffffffff80821115610a7e57610a7e610f02565b604051601f8301601f191681016020018281118282101715610aa257610aa2610f02565b604052828152848301602001861015610ab9578384fd5b82602086016020830137918201602001929092529392505050565b600060208284031215610ae5578081fd5b81356001600160a01b038116811461098f578182fd5b600060208284031215610b0c578081fd5b813567ffffffffffffffff811115610b22578182fd5b610b2e84828501610a53565b949350505050565b60008060408385031215610b48578081fd5b823567ffffffffffffffff80821115610b5f578283fd5b610b6b86838701610a53565b93506020850135915080821115610b80578283fd5b50610b8d85828601610a53565b9150509250929050565b600060208284031215610ba8578081fd5b5035919050565b60008151808452610bc7816020860160208601610e81565b601f01601f19169290920160200192915050565b805460009060028104600180831680610bf557607f831692505b6020808410821415610c1557634e487b7160e01b86526022600452602486fd5b610c1f8489610d9f565b828015610c335760018114610c4457610c6f565b60ff19871682528282019750610c6f565b610c4d89610e07565b60005b87811015610c6957815484820152908601908401610c50565b83019850505b5050505050505092915050565b60008251610c8e818460208701610e81565b9190910192915050565b65383630bcb2b960d11b815260060190565b6274696560e81b815260030190565b653232b0b632b960d11b815260060190565b6001600160a01b0391909116815260200190565b60006020825261098f6020830184610baf565b600060408252610d056040830185610bdb565b8281036020840152610d178185610bdb565b95945050505050565b6020808252602f908201527f42696420616d6f756e742043616e6e6f7420626520302c2043616c6c6572206d60408201526e75737420706c617920612067616d6560881b606082015260800190565b602080825260169082015275042657420416d6f756e742063616e6e6f7420626520360541b604082015260600190565b90815260200190565b918252602082015260400190565b600086825285602083015260a06040830152610dd560a0830186610baf565b8281036060840152610de78186610baf565b90508281036080840152610dfb8185610baf565b98975050505050505050565b60009081526020902090565b60008219821115610e2657610e26610eec565b500190565b600082610e4657634e487b7160e01b81526012600452602481fd5b500490565b6000816000190483118215151615610e6557610e65610eec565b500290565b600082821015610e7c57610e7c610eec565b500390565b60005b83811015610e9c578181015183820152602001610e84565b83811115610eab576000848401525b50505050565b600281046001821680610ec557607f821691505b60208210811415610ee657634e487b7160e01b600052602260045260246000fd5b50919050565b634e487b7160e01b600052601160045260246000fd5b634e487b7160e01b600052604160045260246000fdfea2646970667358221220379f94ba0d8912ab82ffca89bc78a08b8b486d5c4968dfb3acc6f514457be7ad64736f6c63430008000033",
  "linkReferences": {},
  "deployedLinkReferences": {}
}